:100000000C9465010C948D010C948D010C94360BAD
:100010000C94360B0C94360B0C948D010C948D01C2
:100020000C948D010C948D010C948D010C948D0118
:100030000C948D010C948D010C948D010C948D0108
:100040000C94EC0A0C948D010C94BA0A0C94940A4A
:100050000C948D010C948D010C948D010C948D01E8
:100060000C948D010C948D0100407A10F35A00A07D
:10007000724E18090010A5D4E80000E87648170071
:1000800000E40B54020000CA9A3B000000E1F505B1
:10009000000080969800000040420F000000A086FB
:1000A00001000000102700000000E803000000002D
:1000B0006400000000000A000000000001000000D1
:1000C00000002C76D888DC674F0823DFC1DFAE59EB
:1000D000E1B1B796E5E3E453C63AE651997696E87E
:1000E000E6C28426EB898C9B62ED407C6FFCEFBC02
:1000F0009C9F40F2BAA56FA5F490055A2AF75C932D
:100100006B6CF9676DC11BFCE0E40D47FEF520E662
:10011000B500D0ED902E0300943577050080841E45
:10012000080000204E0A000000C80C333333330FA0
:10013000986E12831141EF8D2114893BE65516CF3D
:10014000FEE6DB18D1844B381BF77C1D901DA4BB49
:10015000E424203284725E228100C9F124ECA1E5FE
:100160003D27005EBCE2613FDD83C29C7E20A3FD93
:100170001F41009D23BE46DB65F88C11AF32CA5784
:10018000E97400000000240027002A000000000895
:10019000000201000003040700000000000000004E
:1001A000415400627573790053454E44204F4B0013
:1001B0006C696E6B206973206E6F74003E002C00BA
:1001C00041542B43495053454E443D004950442C23
:1001D0000041542B4349505345525645523D312C12
:1001E000002C330041542B43575341503D220041D2
:1001F000542B43574D4F44453D3300414C524541EC
:10020000445900434F4E4E45435400222C00554460
:1002100050005443500041542B43495053544152D1
:10022000543D342C220041542B4349504D55583DE8
:100230003100415445300041544531006E6F206318
:1002400068616E67650041542B43574D4F44453DEF
:1002500031007265616479004641494C00220022F8
:100260002C220041542B43574A41503D22004F4B12
:10027000004552524F5200302E302E302E30004169
:10028000542B4349465352000A0000000000250049
:1002900028002B0000000000230026002900040491
:1002A000040404040404020202020202030303031E
:1002B00003030102040810204080010204081020FA
:1002C000010204081020AE0B651211241FBECFEFEF
:1002D000D8E0DEBFCDBF24E0A4E1B2E001C01D92B2
:1002E000A23FB207E1F712E0A0E0B1E0E6E0F2E3FE
:1002F00002C005900D92A431B107D9F711E0C4E610
:10030000D1E004C02197FE010E94DF16C336D10759
:10031000C9F70E940C0D0C94F6180C940000CF93B2
:100320008091170390911803DC01ED91FC910284F8
:10033000F385E02D0995C82F80911C0382FF0CC026
:1003400080919C0490919D04DC01ED91FC910190C1
:10035000F081E02D6C2F09958C2FCF910895AF92ED
:10036000BF92CF92DF92EF92FF920F931F93CF93A2
:10037000DF936C017B018B01040F151FEB015E0104
:10038000AE18BF08C017D10759F06991D601ED9199
:10039000FC910190F081E02DC6010995892B79F738
:1003A000C501DF91CF911F910F91FF90EF90DF90EA
:1003B000CF90BF90AF900895FC01538D448D252FB1
:1003C00030E0842F90E0821B930B541710F0CF96EF
:1003D000089501970895FC01918D828D981761F021
:1003E000A28DAE0FBF2FB11D5D968C91928D9F5F38
:1003F0009F73928F90E008958FEF9FEF0895FC0117
:10040000918D828D981731F0828DE80FF11D858DC9
:1004100090E008958FEF9FEF0895FC01918D228D5C
:10042000892F90E0805C9F4F821B91098F739927E1
:1004300008958AE792E00E940D0221E0892B09F4D9
:1004400020E0822F089580E090E0892B29F00E941F
:10045000190281110C9400000895FC01A48DA80FCD
:10046000B92FB11DA35ABF4F2C91848D90E00196F6
:100470008F739927848FA689B7892C93A089B18916
:100480008C91837080648C93938D848D981306C0B7
:100490000288F389E02D80818F7D80830895EF921B
:1004A000FF920F931F93CF93DF93EC0181E0888F2E
:1004B0009B8D8C8D98131AC0E889F989808185FFFE
:1004C00015C09FB7F894EE89FF896083E889F989A0
:1004D00080818370806480839FBF81E090E0DF91A2
:1004E000CF911F910F91FF90EF900895F62E0B8DF5
:1004F00010E00F5F1F4F0F731127E02E8C8D8E11B0
:100500000CC00FB607FCFACFE889F989808185FF16
:10051000F5CFCE010E942D02F1CFEB8DEC0FFD2F18
:10052000F11DE35AFF4FF0829FB7F8940B8FEA89D1
:10053000FB8980818062CFCFCF93DF93EC01888DE0
:100540008823B9F0AA89BB89E889F9898C9185FD4E
:1005500003C0808186FD0DC00FB607FCF7CF8C91DC
:1005600085FFF2CF808185FFEDCFCE010E942D0265
:10057000E9CFDF91CF91089590E0FC01E457FE4F61
:100580002491FC01EE54FD4F3491FC01E256FD4FE5
:10059000E491EE23C9F0222339F0233001F1A8F4CD
:1005A000213019F1223029F1F0E0EE0FFF1FE6575C
:1005B000FD4FA591B4918FB7F894EC91611126C0CD
:1005C00030953E233C938FBF08952730A9F0283003
:1005D000C9F0243049F7809180008F7D03C080915D
:1005E00080008F7780938000DFCF84B58F7784BDC4
:1005F000DBCF84B58F7DFBCF8091B0008F77809368
:10060000B000D2CF8091B0008F7DF9CF3E2BDACFF2
:10061000CF93DF9390E0FC01EE54FD4F249182567E
:100620009D4FFC0184918823D1F090E0880F991FA1
:10063000FC01EE57FE4FA591B491FC01E657FD4F2A
:10064000C591D49161110EC09FB7F8948C91E22F9F
:10065000E0958E238C932881E223E8839FBFDF916E
:10066000CF9108958FB7F894EC91E22BEC938FBF64
:10067000F6CF3FB7F8948091590290915A02A09119
:100680005B02B0915C0226B5A89B05C02F3F19F014
:100690000196A11DB11D3FBFBA2FA92F982F882702
:1006A000BC01CD01620F711D811D911D42E0660FDD
:1006B000771F881F991F4A95D1F708958F929F92AF
:1006C000AF92BF92CF92DF92EF92FF926B017C01CB
:1006D0000E9439034B015C01C114D104E104F1040F
:1006E000B9F00E943903681979098A099B09683EA3
:1006F00073408105910580F321E0C21AD108E10819
:10070000F10888EE880E83E0981EA11CB11CE4CF8E
:10071000FF90EF90DF90CF90BF90AF909F908F9021
:1007200008952FB7F8946091550270915602809108
:100730005702909158022FBF08958F929F92AF92C7
:10074000BF92CF92DF92EF92FF920F931F93CF93BE
:10075000DF935C01962E842E0E9491036B017C0135
:1007600028E8C20E23E1D21EE11CF11CC0E08091FA
:10077000170390911803DC01ED91FC910084F18541
:10078000E02D099585010C0F111D892B59F0C91514
:1007900048F40E948F01D82F881579F0CF5FD801D7
:1007A0008C93E5CF8D1649F0C91539F00E9491035D
:1007B0006C157D058E059F05D0F2F80110828C2FF7
:1007C000DF91CF911F910F91FF90EF90DF90CF902D
:1007D000BF90AF909F908F900895DC0180E06150B2
:1007E00090F09D919827E92FEF70F0E0EE59FE4FC1
:1007F0002491E92FE295EF70F0E0EE58FE4FE4917E
:10080000822F8E27ECCF0895DC012C911196ED916B
:10081000FC91F8948181822B81839281322F3095D3
:100820009323928387E090E00197F1F781818323FE
:10083000818383E290E00197F1F790817894EFEC67
:10084000F0E03197F1F7922381E009F480E0089518
:10085000FC0190810180F281E02D292F209560FF1D
:1008600014C0F8948281822382838181892B8183C1
:10087000A3E2B0E01197F1F78281982B92837894EC
:1008800087ED90E00197F1F70895F8948281822333
:1008900082838181892B8183AFEFB0E01197F1F7DB
:1008A0008281982B928378948FE090E0EBCFDF9257
:1008B000EF92FF920F931F93CF93DF93EC01D62E0D
:1008C000E42E08E010E0FF24F39461E08D2D8F21E9
:1008D00009F460E0CE010E942804FF0C01501109C8
:1008E000A1F7E11010C0F894E981FA819181888123
:1008F000809589238183E981FA819281888180951D
:10090000892382837894DF91CF911F910F91FF907B
:10091000EF90DF900895EF92FF920F931F93CF9384
:10092000DF938C017B0140E065E50E945704E701FD
:1009300088E0E80EF11C699140E0C8010E9457046C
:10094000CE15DF05C1F7DF91CF911F910F91FF9079
:10095000EF900895FC0190810180F281E02DF894E0
:100960008181292F20958223818378943DE743E07C
:1009700050E0315029F1DA011197F1F78081892394
:10098000C1F3F8948281822382838181892B8183C0
:100990007894ABE7B7E01197F1F7F894818182235F
:1009A0008183A3E1B1E01197F1F78081982381E081
:1009B00009F080E07894E3E6F6E03197F1F70895E6
:1009C00080E008956F927F928F929F92AF92BF9234
:1009D000CF92DF92EF92FF920F931F93CF93DF930B
:1009E0008C01EB018091C6049091C7040E94AA0477
:1009F000882309F43FC0B8018091C6049091C704D0
:100A00000E948B0440E06EEB8091C6049091C70475
:100A10000E9457047E016E0189E0C80ED11C8E0130
:100A2000A090C604B090C70488E0882E912C712C49
:100A300066246394C5010E94040481117628660C23
:100A4000E1E08E1A9108B1F7F80171928F01CE168C
:100A5000DF0631F78091C6049091C7040E94AA0472
:100A6000813041F4F70181917F01811105C0E017C8
:100A7000F107C1F790E008C068E0CE010E94ED03E5
:100A800091E028852813F6CF892FDF91CF911F9110
:100A90000F91FF90EF90DF90CF90BF90AF909F901D
:100AA0008F907F906F900895CF93DF93CDB7DEB78F
:100AB00029970FB6F894DEBF0FBECDBFBE016F5FA2
:100AC0007F4F0E94E204882331F08D818F33A9F09B
:100AD00020F48F31A1F080E007C08F3521F08F37EF
:100AE000D1F78CE001C08BE029960FB6F894DEBFF9
:100AF0000FBECDBFDF91CF9108958AE0F5CF89E099
:100B0000F3CF20915F02309160022817390771F40A
:100B100090915D0280915E02981741F0E0915D0234
:100B2000F0E0EC5EFD4F808190E008958FEF9FEF45
:100B300008950895EF92FF920F931F93CF93DF9341
:100B4000DC015C96ED90FC905D97E114F10479F482
:100B500081E090E013969C938E93129790E080E052
:100B6000DF91CF911F910F91FF90EF9008955196D3
:100B7000ED91FC91529750968C915097982F9095AB
:100B80000FB75E962C915E97122F127021FD609523
:100B9000F8942081112319F1282B2083E701219754
:100BA000F1F728E0462F50E0308160FF1AC0382B63
:100BB0003083E7012197F1F7BA01759567952150C8
:100BC00089F7112381F08081892380830FBF5C9690
:100BD0008D919C910197F1F781E090E0C1CF29239D
:100BE000DCCF3923E5CF9081892BEFCF20915F02B5
:100BF000309160022817390771F480915E022091CC
:100C00005D0290E0805C9F4F821B910960E470E080
:100C10000E949516089590E080E0089520915F026B
:100C20003091600228173907B9F490915D028091E4
:100C30005E02981789F0E0915D02F0E0EC5EFD4FF6
:100C4000808120915D0230E02F5F3F4F2F7333276B
:100C500020935D0290E008958FEF9FEF089590E05C
:100C600080E008958F929F92AF92BF92CF92DF92D1
:100C7000EF92FF926C010E9491034B015C010D2CDD
:100C8000000CEE08FF080E949103681979098A098F
:100C90009B096C157D058E059F05A8F3FF90EF90CD
:100CA000DF90CF90BF90AF909F908F900895BF92AC
:100CB000CF92DF92EF92FF920F931F93CF93DF9328
:100CC000EC01B62EC72E8D85811105C0CE010E9484
:100CD000AA0481110EC01B861D861C8680E0DF9150
:100CE000CF911F910F91FF90EF90DF90CF90BF9029
:100CF000089540E060EFCE010E94570401E0E12C2E
:100D0000D12C11E0CE010E940404F82ECE010E94E5
:100D1000040491E0F91218C0813099F51134D8F229
:100D2000DB86D11002C081E08D878B81882399F208
:100D30002396EB2DFC2DCF01089629912193E817DE
:100D4000F907D9F781E0CBCFEE2DF0E0F8120FC014
:100D50008B851817A0F4DE01AE0FBF1F13968C9180
:100D6000802379F4F12C193008F41C87D12EEC0F74
:100D7000FD1F8381902F9095892383830AC081135F
:100D8000F1CFFE01EE0DF11D8381802B8383FF24C3
:100D9000F3946F2DCE010E9428041F5F000F11F401
:100DA000E39401E087E08E1508F0ACCFB7CFFF9257
:100DB0000F931F93CF93DF938C01F62EE091C6041F
:100DC000F091C70413861586148612861186108644
:100DD00017821682158214821382C0E0B8018091B6
:100DE000C6049091C7040E945706D82F882329F083
:100DF000FC1629F0CF5FFC1688F7D0E008C067E04A
:100E0000C8010E94ED03F80197818913F3CF8D2F5C
:100E1000DF91CF911F910F91FF900895FB010190F9
:100E20000020E9F73197AF01461B570BDC01ED912C
:100E3000FC910280F381E02D09940F931F93CF93CF
:100E4000DF938C01D0E0C0E06115710519F00E94BC
:100E50000E07EC016CE471E0C8010E940E078C0FD4
:100E60009D1FDF91CF911F910F910895611571051D
:100E700011F00C940E0790E080E008956F927F923D
:100E80008F929F92AF92BF92CF92DF92EF92FF929A
:100E90000F931F93CF93DF93CDB7DEB7A0970FB615
:100EA000F894DEBF0FBECDBF4C018A0180E17E0108
:100EB00021E1E20EF11CD701E82F1D92EA95E9F736
:100EC0009E012F5F3F4F6901D9011D928A95E9F775
:100ED000C7010E94C4120115110521F0B801C60115
:100EE0000E94C412F70101900020E9F731971E2FEC
:100EF0001E19F60101900020E9F731970E2F0C1909
:100F00000E949103092C000CAA08BB08860E971EAC
:100F1000A81EB91E612C712C8091170390911803A3
:100F2000DC01ED91FC910084F185E02D0995892B80
:100F3000D1F00E948F01F701E70DF11D90817394AC
:100F40008913712CF601E60DF11D908163948913CC
:100F5000612C112311F0171539F10023E9F2061164
:100F6000DBCF82E00CC08AE090E00E9432060E9453
:100F70009103681579058A059B0570F280E0A096BB
:100F80000FB6F894DEBF0FBECDBFDF91CF911F919A
:100F90000F91FF90EF90DF90CF90BF90AF909F9018
:100FA0008F907F906F90089581E0E9CFEF92FF924C
:100FB0000F931F93CF93DF93CDB7DEB760970FB634
:100FC000F894DEBF0FBECDBF7B018E010F5F1F4FB8
:100FD00020E1F80111922A95E9F7BC01C8010E94AD
:100FE000C412B8018091190390911A030E94360728
:100FF000F8E8EF16F2E0FF06A9F46CE471E08091E6
:10100000190390911A030E940E0760960FB6F89488
:10101000DEBF0FBECDBFDF91CF911F910F91FF902B
:10102000EF900895E114F10481F3B701C8010E9423
:10103000C412B8018091190390911A030E943607D7
:10104000E4CFCF9368E872E08FE792E00E94D60782
:1010500041E752E067E772E08EE591E00E943E07CB
:10106000C82F50E040E06EE672E08AE090E00E9417
:101070003E0781E0C11180E0CF910895CF93DF93C7
:1010800070E060E083E692E00E94D607C7E1D3E01B
:101090006CE473E08A819B810E94360770E060E017
:1010A0008FE592E00E94D6076CE573E08A819B8110
:1010B0000E94360768E872E08DE592E00E94D6074C
:1010C00048E552E06EE672E088E99AE30E943E0746
:1010D000DF91CF910C942108CF9310929C03109232
:1010E0001C0480911C038F768F7B80931C031092CD
:1010F0009B03C3E050E040E067E772E08AE090E0E5
:101100000E943E0760E080911B030E94BC0284EFB6
:1011100091E00E94320661E080911B030E94BC02B4
:1011200050E040E062E572E088EB9BE00E943E0701
:10113000813031F0C150F1F690E0892FCF910895C0
:1011400068E872E086E492E00E94D6074CE352E041
:101150006EE672E088EE93E00E943E07882361F31A
:1011600080911C0368E872E081FF27C087E392E06A
:101170000E94D6074CE352E06EE672E088EE93E000
:101180000E943E078823C1F268E872E086E292E09E
:101190000E94D6074CE352E06EE672E088EB9BE0DB
:1011A0000E943E0791E0811101C090E080911C03F4
:1011B00090FB80F980931C03C0CF82E392E0D8CFEC
:1011C00070E060E086E192E00E94D60780911D0306
:1011D00070E060E083FF37C082E192E00E94D607B2
:1011E00070E060E08FE592E00E94D6076EE173E068
:1011F0008091190390911A030E94360770E060E015
:101200008BE092E00E94D60766E473E080911903B8
:1012100090911A030E941D074BEF51E063E072E0CA
:1012200080E197E20E943E07982F81E0911101C072
:1012300080E020911C0380FB24F920931C03911172
:1012400010929B0308958EE092E0C8CFCF930E9446
:101250006C08C82F811104C0C0E08C2FCF91089575
:1012600080911C0386FD35C080911C0387FF22C03E
:1012700070E060E081ED91E00E94D6076FE873E0D6
:101280008091190390911A030E941D074CE352E0CC
:101290006EE672E080ED97E00E943E0721E081114A
:1012A00001C020E090911D0320FB91F990931D0354
:1012B000882391F280911C0385FF04C00E943E08A0
:1012C000882351F280911C0383FFC7CFCF910C94E8
:1012D000E00868E872E08FEE91E00E94D6074CE3E8
:1012E00052E06EE672E080ED97E00E943E078823B0
:1012F00009F4B2CF70E060E084EE91E00E94D6077E
:101300006CE673E08091190390911A030E943607EE
:1013100070E060E08FE592E00E94D6076CE773E032
:101320008091190390911A030E94360770E060E0E3
:101330008BE092E00E94D6076CE873E0809119037D
:1013400090911A030E94360768E872E081EE91E0FE
:101350000E94D60741E752E06EE672E088E893E12A
:101360000E943E0721E0813009F020E090911D03AA
:1013700020FB90F990931D03813009F475CF6CCF59
:1013800020919B03233010F00C94260990911C03AC
:1013900093FF1CC094FB882780F994FD18C02F5F31
:1013A00020939B0395FF10C00E94210881110CC05F
:1013B0000E943E08811108C080ED97E00E9432062D
:1013C0000E942108882301F30C94E00881E008952D
:1013D00040E150E06BE171E08CE493E00E94E7189B
:1013E00040E150E06CE071E08CE593E00E94E7188A
:1013F000ECE1F3E08081806280830C943E08FC0184
:1014000080819181009711F00C94811708950F93BA
:101410001F93CF93DF93EC0188819981009759F056
:101420002A813B812617370730F081E0DF91CF9189
:101430001F910F9108958B016F5F7F4F0E940A18D3
:10144000009759F0998388831B830A832C813D81FF
:10145000232B59F7FC011082E8CF80E0E7CF0F93F0
:101460001F93CF93DF93009731F480E0DF91CF910A
:101470001F910F91089561157105F9F08C01C091CC
:10148000E604D091E704C60FD71FBE0182EE94E0B8
:101490000E94070A882349F32091E2043091E30473
:1014A0008091E6049091E704B801820F931F0E9497
:1014B000D018D093E704C093E60481E0D7CFFC01B5
:1014C00001900020E9F73197BF01681B790B0C945C
:1014D0002F0AEF92FF920F931F93CF93DF93EC01AC
:1014E0007B018A01BA010E94070A28813981811192
:1014F00014C02115310519F0C9010E948117198204
:1015000018821D821C821B821A82CE01DF91CF912C
:101510001F910F91FF90EF9008951D830C83B701E9
:10152000C9010E94D018F1CF1F920F920FB60F92EF
:1015300011242F933F934F935F936F937F938F93D8
:101540009F93AF93BF93EF93FF938AE792E00E943C
:101550002D02FF91EF91BF91AF919F918F917F915C
:101560006F915F914F913F912F910F900FBE0F9010
:101570001F9018951F920F920FB60F9211242F9360
:101580008F939F93EF93FF93E0918A02F0918B02E8
:101590008081E0919002F091910282FD1BC09081C8
:1015A000809193028F5F8F7320919402821741F094
:1015B000E0919302F0E0E658FD4F958F80939302FF
:1015C000FF91EF919F918F912F910F900FBE0F90F0
:1015D0001F9018958081F4CF1F920F920FB60F9233
:1015E00011242F933F938F939F93AF93BF93809139
:1015F000550290915602A0915702B0915802309135
:10160000540223E0230F2D3758F50196A11DB11D7B
:10161000209354028093550290935602A093570250
:10162000B09358028091590290915A02A0915B02A6
:10163000B0915C020196A11DB11D80935902909357
:101640005A02A0935B02B0935C02BF91AF919F914D
:101650008F913F912F910F900FBE0F901F90189573
:1016600026E8230F0296A11DB11DD2CF1F920F9223
:101670000FB60F9211242F933F934F935F936F9365
:101680007F938F939F93AF93BF93EF93FF93E091DB
:101690005F02F0916002309749F0A685B785858595
:1016A000968D91FF14C09C918923A1F4FF91EF9135
:1016B000BF91AF919F918F917F916F915F914F916A
:1016C0003F912F910F900FBE0F901F9018959C91F6
:1016D000892361F7A389B4899C91858980958923A1
:1016E0008C93868997890197F1F7608D718DA68516
:1016F000B785558538E020E0CB010197F1F7822FBF
:1017000090E095958795282F4C91452309F0206806
:10171000315091F7868D81FD209580915E0290E099
:1017200001968F73992730915D02381799F0A09137
:101730005E02B0E0AC5EBD4F2C9380935E02828D62
:10174000938D0197F1F7A389B4898C919589892BA1
:101750008C93ACCF868D8160868FF1CFCF92DF9254
:10176000EF92FF9210927D0210927C0238EEC32E0F
:1017700033E0D32EE12CF12CC0927E02D0927F0276
:10178000E0928002F09281028CE291E090937B02E1
:1017900080937A0285EC90E0909387028093860292
:1017A00084EC90E0909389028093880280EC90E032
:1017B00090938B0280938A0281EC90E090938D024B
:1017C00080938C0282EC90E090938F0280938E0243
:1017D00086EC90E090939102809390021092930295
:1017E0001092940210929502109296021092E904BF
:1017F0001092E8041092EB041092EA041092ED04A7
:101800001092EC0447E050E06FE471E088EE94E061
:101810000E94690A1092E3041092E2041092E50417
:101820001092E4041092E7041092E6044AE350E0B8
:1018300067E571E082EE94E00E94690A60E085E06D
:101840000E940803E7EBF2E0E491E093D404E3EABA
:10185000F2E0E491F0E0EE0FFF1FEC56FD4F8591B2
:1018600094919093D6048093D5041092DF04109243
:10187000E1041092E0041092DE041092DD04109254
:10188000DC041092DB041092DA041092D904109256
:10189000D8041092D7041092D3041092D20410925C
:1018A000BE0484ED94E09093C7048093C604109224
:1018B000C4041092C5041092BD0489E08093C00452
:1018C00061E06093C1046093C2046093C30410920A
:1018D000A1041092A004C092A204D092A304E092AA
:1018E000A404F092A5048EE391E090939F0480936A
:1018F0009E041092B5041092B4041092B704109292
:10190000B6041092B9041092B8041092BB0410925D
:10191000BA048091BC048E7F8D7F8093BC04869531
:101920008170682782E00E94BC0261E082E00E9430
:101930000803E4EBF2E0E491E093AE04E0EAF2E0C5
:10194000E491F0E0EE0FFF1FE657FD4F8591949173
:101950009093B0048093AF0460E083E00E9408039A
:101960008091BC0481FD04C061E083E00E94BC0260
:101970008EE994E023E02093AA04E5EBF2E0E49101
:10198000E093AB04E1EAF2E0E491F0E0EE0FFF1F38
:10199000EC56FD4F259134913093AD042093AC0467
:1019A000909318038093170390931A03809319035D
:1019B00084E080931B0361E00E94080360E0809153
:1019C0001B030E94BC0280911D0388608460809389
:1019D0001D0380911C0382718D7F80931C0380E323
:1019E00080939503809196038E7F8093960381E385
:1019F00080939703809198038E7F8093980382E36E
:101A00008093990380919A038E7F80939A03FF902D
:101A1000EF90DF90CF900895CF93DF93CDB7DEB7EF
:101A2000A7970FB6F894DEBF0FBECDBF789484B5EC
:101A3000826084BD84B5816084BD85B5826085BDCA
:101A400085B5816085BD80916E00816080936E0058
:101A5000109281008091810082608093810080914A
:101A600081008160809381008091800081608093FB
:101A700080008091B10084608093B1008091B000BB
:101A800081608093B00080917A00846080937A00B6
:101A900080917A00826080937A0080917A008160E0
:101AA00080937A0080917A00806880937A00109207
:101AB000C10060E085E00E94080360E08EE00E94C3
:101AC00008031092B9041092B8041092B70410924F
:101AD000B6041092B5041092B4048DE991E090938D
:101AE000BB048093BA049091AA04963108F047C0D1
:101AF0002DEB30E03093B5042093B4042BE931E0B2
:101B00003093B7042093B6042CE231E03093B9044B
:101B10002093B8042091680084E0983048F031E0C8
:101B20009E3008F430E081E001C0880F3A95EAF772
:101B3000822B809368002DE630E0983050F02BE641
:101B400030E09E3030F02CE630E0963110F030E09E
:101B500020E03093B2042093B104292F30E0983074
:101B600008F0E5C081E001C0880F9A95EAF78093FC
:101B7000B3048091BA049091BB040197F1F780916E
:101B8000B8049091B904892B49F1E0915F02F0917A
:101B9000600224E0EE39F20709F1309739F0A389A9
:101BA000B4899C918589809589238C938091BC040C
:101BB0008E7F8093BC0410925E0210925D028EE9CB
:101BC00094E09093600280935F02E091B104F09101
:101BD000B20480819091B304892B8083E0918A02C2
:101BE000F0918B0282E08083E0918602F09187027F
:101BF0001082E0918802F09189028FEC808310922C
:101C00009202E0918E02F0918F0286E08083E09153
:101C10008C02F0918D02808180618083E0918C0242
:101C2000F0918D02808188608083E0918C02F09138
:101C30008D02808180688083E0918C02F0918D021A
:101C400080818F7D8083E091C604F091C704138664
:101C500015861486128611861086178216821582C2
:101C6000148213821092C4041092C504AE014F5F17
:101C70005F4F7A0111E0B7018091C6049091C704CB
:101C80000E945706882309F468C067E0C7010E94D4
:101C9000ED0398858913EFCF8091C4048F5F809303
:101CA000C4048981883231F008F04EC0803111F0CF
:101CB000823209F78091C5048F5F8093C5048091BB
:101CC000BD04811126C08091C6049091C7040E9472
:101CD000AA04B7018091C6049091C7040E948B04A6
:101CE00040E064EB8091C6049091C7040E945704C1
:101CF0008091C6049091C7040E940404082F80912B
:101D0000C6049091C7040E94AA04011102C0109356
:101D1000BD0489818031F9F0C7010E94540590917A
:101D2000C004981708F0A7CF8093C004A4CF9E30BA
:101D300040F42850310981E001C0880F2A95EAF764
:101D400016CF2E503109F7CF8B3309F4B3CF82343D
:101D500009F091CFAFCF8CE0E2CF60E081E692E076
:101D60000E94D70680916102803109F46DC0B701ED
:101D700081E692E00E94E204882309F465C08D8127
:101D80008F3709F461C08FE78D838091C6049091ED
:101D9000C7040E94AA0461E672E08091C604909193
:101DA000C7040E948B0440E06EE48091C6049091C9
:101DB000C7040E94570440E06B818091C604909153
:101DC000C7040E94570440E06C818091C604909142
:101DD000C7040E94570480916102803141F040E0C5
:101DE0006D818091C6049091C7040E945704809130
:101DF000C6049091C7042091C304222319F10E94C4
:101E0000AA04882309F161E672E08091C6049091EA
:101E1000C7040E948B044091BD0468E48091C6040D
:101E20009091C7040E9457048091BD0481112EC077
:101E300064E170E080E090E00E945E038091C6045F
:101E40009091C7040E94AA048CE08093C004809102
:101E5000C4048230B0F110E08091C404181788F5F2
:101E60008091C0048C3069F1612FC7010E94D706B0
:101E70008981803121F1C7010E9454059091C004ED
:101E8000981710F48093C0041F5FE6CF8091BE04C2
:101E9000882329F060E08091BF040E94BC0264E1C5
:101EA00070E080E090E00E945E038091BE04882391
:101EB00029F261E08091BF040E94BC02BFCF8CE098
:101EC000DDCF1092C10480911D03846080931D03B7
:101ED00062E971E08AE792E00E941D070E946C08A7
:101EE0000E94E809AAE04A2E512C612C712CBCE119
:101EF000CB2EB4E0DB2EF0E02F2EF0E03F2E8091D1
:101F00001C0380FF0E946C080E94910300917602DE
:101F1000109177022091780230917902601B710B49
:101F2000820B930B603375478105910558F168E882
:101F300072E080EA91E00E94D60750E040E06EE651
:101F400072E08EE591E00E943E07882349F00E94EE
:101F5000210881110DC00E946C080E94E80908C088
:101F600060EA71E08AE792E00E941D070E946C0817
:101F70000E949103609376027093770280937802B7
:101F8000909379020E949103009172021091730262
:101F90002091740230917502601B710B820B930BC0
:101FA000683E73408105910508F4CBC1B70181E615
:101FB00092E00E94E204811105C060E070E08EEFC3
:101FC00092EC3EC06A8170E0762F6627770F770F1C
:101FD000770F2981B8E02B9F90011124262B372BF6
:101FE000809161028031E1F468856623C9F070E078
:101FF0008F81FB01E81BF109CF019695982F882767
:10200000979587950E949516CB018097B90153E06B
:10201000660F771F5A95E1F760789C01260F371FEE
:102020002138F4EE3F074CF2B901330F880B990BBE
:102030000E94361520E030E040E05CE30E9471151C
:1020400060936A0270936B0280936C0290936D02AE
:102050008091C6049091C7040E94AA0440E06CECF1
:102060008091C6049091C7040E9457044091BD041A
:1020700064E48091C6049091C7040E945704809143
:10208000C104882311F1E091C0048091C204882327
:1020900009F4A4C18091BD048111A0C10E949103E3
:1020A0004B015C018091C6049091C7040E94040416
:1020B000813059F00E949103681979098A099B09B6
:1020C0006E3E72408105910568F340E440937C00C8
:1020D00080917A00806480937A0080917A0086FDF6
:1020E000FCCF8091780060917900762F682F072EC1
:1020F000000C880B990B0E94361520E030E040E878
:102100005AE30E94711520E030E048EC52E40E944E
:1021100071150E946616609369028FEA91E00E9431
:102120005F0A6091EC047091ED048091E804909155
:10213000E9040E942F0A83EB91E00E945F0A6091FC
:102140006A0270916B0280916C0290916D021BA2E9
:102150001AA21DA21CA21FA21EA2870122E044E017
:102160000E948812009709F461C1FC0101900020CF
:10217000E9F73197AF01481B590BBC01CE0182969C
:102180000E94690A6EA17FA18AA19BA10E942F0AC9
:10219000CE0182960E94FF0988EB91E00E945F0ABF
:1021A000809169021BA21AA21DA21CA21FA21EA23C
:1021B0004AE0B70190E00E94D312F701019000209D
:1021C000E9F73197AF014E195F09B701CE01829649
:1021D0000E94690A6EA17FA18AA19BA10E942F0A79
:1021E000CE0182960E94FF0948E250E06DEB71E05B
:1021F0008EE193E00E94E71846E050E06FED71E059
:1022000086E493E00E94E71880911C038860809325
:102210001C030E94E0080091E2041091E3040E9474
:10222000C009ACE9B3E00D900020E9F7CD018D596C
:1022300093404FE7481B50E0B8018CE993E00E94BF
:10224000D718ECE9F3E001900020E9F7CF018D59B0
:102250009340182F20911D0322FF02C012E0180F97
:1022600070E060E080EC91E00E94D6078091190355
:1022700090911A03DC01ED91FC910190F081E02D29
:1022800064E3099570E060E08EEB91E00E94D60770
:10229000A0901903B0901A03212F30E050E040E0E5
:1022A00019A28E010F5D1F4FCA01B901A30192014E
:1022B0000E94A916605DF80162938F012115310516
:1022C0004105510589F7309721F0BF01C5010E94F2
:1022D0000E076CE471E0C5010E940E0740EB51E06F
:1022E0006CEB71E088EE93E00E943E07823009F4C7
:1022F000ADC08091190390911A0320911D036CE9E0
:1023000073E022FFA0C00E941D0743EA51E068EA83
:1023100071E088E893E10E943E07813009F096C0A1
:1023200010929C0380911C03806180931C030E9487
:10233000910360937202709373028093740290937E
:1023400075020E94C009D701E0E11D92EA95E9F704
:102350001AA21BA21CA21DA210921C0480916E0244
:102360008E7F80936E02FDE2F0936F02D092710235
:10237000C092700242E552E06CEC71E088EE93E0AE
:102380000E943E07823009F069C00E942609309100
:102390006E0280916F02209170029091710230FF65
:1023A00011C0022F192F62EE71E0843311F06BEF30
:1023B00071E08AE792E00E941D07B8018AE792E087
:1023C0000E941D072114310409F499CD0E941902BD
:1023D000882309F494CD0E9400008DCDE9508EEE43
:1023E00092E0E33038F4F0E0EE0FFF1FEA5FFE4FBB
:1023F000808191814C01990FAA08BB088091BE048D
:10240000882329F060E08091BF040E94BC02C501CE
:10241000B4010E945E038091BE04882309F455CE66
:1024200061E08091BF040E94BC024FCE8AA19BA1B3
:10243000009711F00E9481171BA21AA21FA21EA2D0
:102440001DA21CA29FCE0E9436075FCF80911C0365
:102450008F7E80931C0310929C0369CF813009F01A
:1024600096CF4CE263E0CE0182960E949D038AA142
:10247000843329F480911C03806180931C034AE318
:102480006FE0C7010E949D03C7010E94A612803819
:1024900008F08FE740E0682F8CE194E00E949D03F4
:1024A00080916E02816080936E028AA180936F0298
:1024B000D0927102C092700250E040E06EE672E08D
:1024C0008AE090E00E943E0762CF8EE391E0909315
:1024D0009F0480939E0480915F02909160028E59C8
:1024E000944071F4E091B104F091B2049081809134
:1024F000B3048095892380831092600210925F025A
:1025000082EE94E00E94FF0988EE94E00C94FF09AB
:10251000EF920F931F93CF93DF93E80134E047FDD1
:1025200034E1042E000C550B57FF03C05195419523
:102530005109E32E022F242FAE010E94ED12CE018D
:10254000DF91CF911F910F91EF900895FC018827A3
:102550009927E89421912032E9F3293010F02E30A8
:10256000C8F32B3241F02D3239F4689404C00E9434
:10257000CB12820F911D219120532A30C0F31EF4FB
:10258000909581959F4F0895FB01DC0105900D9278
:102590000020E1F708957AE0979F902D879F802D86
:1025A000910D11240895BB27FB015527AA27880FF9
:1025B000991FAA1FA41710F0A41B83955051B9F7B7
:1025C000A05DAA3308F0A95DA193009779F7B11136
:1025D000B1931192CB010C942415A9E0B0E0E3EF84
:1025E000F2E10C9435166A01F22EB02E102FFBE3A7
:1025F000AF2EA01608F41BE31F5F012F27E0AE01EA
:102600004F5F5F4F0E944C14BC018981982F9970D5
:10261000913009F43FC09BE2E1FC04C09E2D917013
:10262000E0FC3AC05E2D5071E82FE87083FF46C091
:1026300084E0911101C083E0EF2DE81B8F1508F0B5
:10264000E0E0D6018E2F20E2552351F1992329F0A5
:10265000D6019C93C60101966C0196012D5F3F4FF8
:10266000E2FE24C08EE4D6018C9391E411969C93F3
:10267000119712968C93D9018E2F90E281111BC075
:10268000E20FF32FF11D10828EEF9FEF2996ECE001
:102690000C9451169DE2C6CF90E2C4CF2D93815089
:1026A0008111FCCFCE0ED11CE0E0D0CF8EE6D6015A
:1026B0008C9391E6DBCF9D938150E0CF482F4470FF
:1026C00082FF3DC084E0911101C083E08F1510F4BA
:1026D000EF2DE81BD6018E2F20E2552309F1992317
:1026E00029F0D6019C93C60101966C0196012D5FDD
:1026F0003F4FE2FE1BC089E4D6018C938EE4119615
:102700008C93119786E412968C93D9018E2F90E2C8
:10271000882309F4B5CF9D938150FACF2D93815032
:102720008111FCCFCE0ED11CE0E0D9CF89E6D601D5
:102730008C938EE611968C93119786E6E4CF9B01DD
:1027400077FF02C030E020E0A1E0B0E0911102C0CC
:10275000B0E0A0E0F9013196AE0FBF1F8B2C912C99
:10276000BB2009F461C05401EFEFAE1ABE0AAA0DF6
:10277000BB1DFA161B0619F014F04F2D4A1B511100
:1027800088C0E3FC59C07601A42FB0E2A1114FC06C
:10279000C40ED11C992309F45BC040E0D601119608
:1027A000F60190836D01552309F448C0012F060FEF
:1027B0009A81582F507184FF03C0913309F401505E
:1027C00010160CF047C0093008F008E0EEE2FE2ECB
:1027D0005B01A01AB10885019194819491082F3F63
:1027E000320729F4D601FC92F60131966F01621787
:1027F000730794F1021713077CF5DB01A21BB30BDF
:10280000AA24A394B12CAC0EBD1EAA0DBB1D11961B
:102810008C9121503109D601119628153905F4F013
:10282000F60180836D01DBCFB12CA12CA0CFF70185
:10283000B1937F01A150AACF9111B0CFD601942FAF
:1028400050E302C05D9391509111FCCFC40ED11C96
:1028500040E0ACCF01E0BACF80E3DBCF6217730773
:1028600031F4963388F4953311F4552369F0F60169
:102870008083FD01842F90E2811108C0A40FB11D57
:102880001C9290E080E002CF81E3F1CF91938150E0
:10289000F3CF911183CF8ACF283008F027E0332778
:1028A000DA01990F311D87FD916000966105710570
:1028B00039F432602E5F3D9330E32A95E1F70895B5
:1028C0009F3F30F080387105610509F03C5F3C5F47
:1028D0003D93913008F08068911DDF93CF931F9353
:1028E0000F93FF92EF92192F987F9695E92F969567
:1028F0009695E90FFF27EE53FF4F99273327EE24D4
:10290000FF24A701E70105900894079428F4360FE7
:10291000E71EF81E491F511D660F771F881F991F5C
:102920000694A1F70590079428F4E70EF81E491FB6
:10293000561FC11D770F881F991F661F0694A1F7A8
:102940000590079428F4F80E491F561FC71FD11D84
:10295000880F991F661F771F0694A1F705900794AB
:1029600020F4490F561FC71FD81F990F661F771FE6
:10297000881F0694A9F784911095177041F0D69599
:10298000C79557954795F794E7941A95C1F7E8E6E8
:10299000F0E06894159015913591659195910590A9
:1029A0007FE27395E118F10A430B560BC90BD0096E
:1029B000C0F7E10CF11E431F561FC91FD01D7EF446
:1029C000703311F48A95E6CFE894015030F0080F87
:1029D0000AF40027021708F4202F2395022F7A33D8
:1029E00028F079E37D932A95E9F710C07D932A9525
:1029F00089F6069497956795379517951794E1187A
:102A0000F10A430B560BC90BD00998F023957E9120
:102A100073957A3308F070E37C932013B8F77E91B6
:102A200070617D9330F0839571E37D9370E32A9517
:102A3000E1F71124EF90FF900F911F91CF91DF915B
:102A4000992787FD90950895DC01FC01672F71910E
:102A50007723E1F7329704C07C916D937083629184
:102A6000AE17BF07C8F30895E89409C097FB3EF47A
:102A700090958095709561957F4F8F4F9F4F9923CB
:102A8000A9F0F92F96E9BB279395F6958795779549
:102A90006795B795F111F8CFFAF4BB0F11F460FF09
:102AA0001BC06F5F7F4F8F4F9F4F16C0882311F061
:102AB00096E911C0772321F09EE8872F762F05C075
:102AC000662371F096E8862F70E060E02AF09A9510
:102AD000660F771F881FDAF7880F9695879597F905
:102AE00008950E9484150C94F5150E94E71538F09E
:102AF0000E94EE1520F0952311F00C94DE150C9435
:102B0000E41511240C9429160E94061670F3959F63
:102B1000C1F3950F50E0551F629FF001729FBB27D4
:102B2000F00DB11D639FAA27F00DB11DAA1F649F70
:102B30006627B00DA11D661F829F2227B00DA11D23
:102B4000621F739FB00DA11D621F839FA00D611DA9
:102B5000221F749F3327A00D611D231F849F600DCA
:102B6000211D822F762F6A2F11249F5750409AF0F3
:102B7000F1F088234AF0EE0FFF1FBB1F661F771F7F
:102B8000881F91505040A9F79E3F510580F00C944A
:102B9000DE150C9429165F3FE4F3983ED4F3869536
:102BA00077956795B795F795E7959F5FC1F7FE2BEA
:102BB000880F911D9695879597F9089597F99F67C6
:102BC00080E870E060E008959FEF80EC08950024B5
:102BD0000A941616170618060906089500240A9482
:102BE00012161306140605060895092E0394000C08
:102BF00011F4882352F0BB0F40F4BF2B11F460FF97
:102C000004C06F5F7F4F8F4F9F4F089557FD9058BF
:102C1000440F551F59F05F3F71F04795880F97FBA0
:102C2000991F61F09F3F79F087950895121613065A
:102C30001406551FF2CF4695F1DF08C01616170689
:102C40001806991FF1CF86957105610508940895BE
:102C5000E894BB2766277727CB0197F908952F9231
:102C60003F924F925F926F927F928F929F92AF921C
:102C7000BF92CF92DF92EF92FF920F931F93CF9369
:102C8000DF93CDB7DEB7CA1BDB0B0FB6F894DEBF00
:102C90000FBECDBF09942A88398848885F846E8426
:102CA0007D848C849B84AA84B984C884DF80EE8070
:102CB000FD800C811B81AA81B981CE0FD11D0FB679
:102CC000F894DEBF0FBECDBFED0108950E940E1631
:102CD00088F09F5798F0B92F9927B751B0F0E1F0DD
:102CE000660F771F881F991F1AF0BA95C9F714C08D
:102CF000B13091F00E942816B1E008950C94281686
:102D0000672F782F8827B85F39F0B93FCCF38695C5
:102D100077956795B395D9F73EF490958095709522
:102D200061957F4F8F4F9F4F089597FB072E16F4A5
:102D3000009407D077FD09D00E94CB1607FC05D080
:102D40003EF4909581959F4F0895709561957F4FC2
:102D50000895A1E21A2EAA1BBB1BFD010DC0AA1FDC
:102D6000BB1FEE1FFF1FA217B307E407F50720F0F4
:102D7000A21BB30BE40BF50B661F771F881F991F6F
:102D80001A9469F760957095809590959B01AC01B8
:102D9000BD01CF010895AA1BBB1B51E107C0AA1FAB
:102DA000BB1FA617B70710F0A61BB70B881F991FEC
:102DB0005A95A9F780959095BC01CD010895EE0F25
:102DC000FF1F0590F491E02D09940F931F93CF936B
:102DD000DF938230910510F482E090E0E091F004FE
:102DE000F091F10430E020E0B0E0A0E0309799F4F9
:102DF0002115310509F44AC0281B390B243031054F
:102E0000D8F58A819B816115710589F1FB01938356
:102E10008283FE0111C040815181028113814817D4
:102E20005907E0F04817590799F4109761F0129686
:102E30000C93129713961C933296CF01DF91CF918A
:102E40001F910F9108950093F0041093F104F4CFB3
:102E50002115310551F04217530738F0A901DB0164
:102E60009A01BD01DF01F801C1CFEF01F9CF9093C5
:102E7000F1048093F004CDCFFE01E20FF31F8193A4
:102E800091932250310939832883D7CF2091EE04C2
:102E90003091EF04232B41F4209102013091030182
:102EA0003093EF042093EE04209100013091010152
:102EB0002115310541F42DB73EB7409104015091E1
:102EC0000501241B350BE091EE04F091EF04E217AD
:102ED000F307A0F42E1B3F0B2817390778F0AC013D
:102EE0004E5F5F4F2417350748F04E0F5F1F50931A
:102EF000EF044093EE04819391939FCFF0E0E0E0E4
:102F00009CCFCF93DF930097E9F0FC0132971382B7
:102F10001282A091F004B091F104ED0130E020E0C4
:102F20001097A1F420813181820F931F2091EE042C
:102F30003091EF042817390709F061C0F093EF04CE
:102F4000E093EE04DF91CF910895EA01CE17DF07F9
:102F5000E8F54A815B819E0141155105B1F7E90110
:102F6000FB83EA8349915991C40FD51FEC17FD07E4
:102F700061F4808191810296840F951FE901998304
:102F80008883828193819B838A83F0E0E0E01296BC
:102F90008D919C9113970097B9F52D913C911197C4
:102FA000CD010296820F931F2091EE043091EF0421
:102FB0002817390739F6309751F51092F10410921D
:102FC000F004B093EF04A093EE04BCCFD383C2838C
:102FD00040815181840F951FC817D90761F44E5F56
:102FE0005F4F88819981480F591F518340838A819F
:102FF0009B81938382832115310509F0B0CFF09333
:10300000F104E093F0049ECFFD01DC01C0CF1382F8
:103010001282D7CFB0E0A0E0E0E1F8E10C943116E5
:103020008C01009751F4CB010E94E5168C01C80178
:10303000CDB7DEB7E0E10C944D16FC01E60FF71FAB
:103040009C0122503109E217F30708F49DC0D90111
:10305000CD91DC911197C617D70798F0C530D105EF
:1030600030F3CE0104978617970708F3C61BD70BDA
:103070002297C193D1936D937C93CF010E948117C6
:10308000D6CF5B01AC1ABD0A4C018C0E9D1EA091DF
:10309000F004B091F104512C412CF12CE12C10974B
:1030A00031F58091EE049091EF048815990509F0AF
:1030B0005CC04616570608F058C0809100019091F8
:1030C0000101009741F48DB79EB7409104015091E2
:1030D0000501841B950BE817F90708F055C0F0931C
:1030E000EF04E093EE04F90171836083A0CF8D912A
:1030F0009C91119712966C90129713967C9013974F
:10310000A815B90559F56C0142E0C40ED11CCA14CA
:10311000DB0420F1AC014A195B09DA01129615971C
:1031200080F06282738251834083D9016D937C93D6
:10313000E114F10471F0D7011396FC93EE9312970A
:1031400076CF22968C0F9D1FF90191838083F30126
:10315000EFCFF093F104E093F00469CF48165906DD
:1031600008F42C017D01D3019ACFCB010E94E51612
:103170007C01009749F0AE01B8010E94C718C80150
:103180000E948117870153CF10E000E050CFFB0170
:10319000DC0102C001900D9241505040D8F70895D3
:1031A000FB01DC0101900D920020E1F70895FB0185
:1031B000DC010D900020E9F711974150504028F0B4
:1031C000019000200D92C9F708951C920895FB010B
:1031D000DC014150504048F001900D920020C9F7A9
:1031E00001C01D9241505040E0F7089511E0C4E63F
:1031F000D1E004C0FE010E94DF162196C536D1073A
:06320000C9F7F894FFCFAE
:103206000000F20480005E00BC0077014035646473
:10321600517245376D4672553740004E4554494107
:1032260020343120322C3400000000004F02AF0160
:10323600DC019C020D02EB01FF01000000009A0573
:10324600AF012F069905F6050E0681050D0A0054F5
:103256006573743132330047455420687474707353
:103266003A2F2F6974686F6D656173736973746142
:103276006E742E303030776562686F73746170706B
:103286002E636F6D2F676574646174612E7068704C
:103296003F005374617274696E67207769666900CE
:1032A6004E6F7420726573706F6E64696E67006925
:1032B600643D002674313D00266C313D006974681A
:1032C6006F6D65617373697374616E742E3030301F
:1032D600776562686F73746170702E636F6D003806
:1032E60030004D6573736167652066726F6D20747B
:1032F6006865207365727665723A004D6573736111
:1033060067652061206C6F63616C20636C69656E14
:04331600743A000005
:00000001FF
